{
  "address": "0x1ADD4E55ecEffd795B01d22203D280c93A2F1dc3",
  "abi": [
    {
      "inputs": [],
      "name": "AccessDenied",
      "type": "error"
    },
    {
      "inputs": [
        {
          "internalType": "uint256",
          "name": "",
          "type": "uint256"
        },
        {
          "internalType": "bytes",
          "name": "",
          "type": "bytes"
        }
      ],
      "name": "CallReverted",
      "type": "error"
    },
    {
      "inputs": [],
      "name": "RemintForbidden",
      "type": "error"
    },
    {
      "anonymous": false,
      "inputs": [
        {
          "indexed": true,
          "internalType": "address",
          "name": "owner",
          "type": "address"
        },
        {
          "indexed": true,
          "internalType": "address",
          "name": "approved",
          "type": "address"
        },
        {
          "indexed": true,
          "internalType": "uint256",
          "name": "tokenId",
          "type": "uint256"
        }
      ],
      "name": "Approval",
      "type": "event"
    },
    {
      "anonymous": false,
      "inputs": [
        {
          "indexed": true,
          "internalType": "address",
          "name": "owner",
          "type": "address"
        },
        {
          "indexed": true,
          "internalType": "address",
          "name": "operator",
          "type": "address"
        },
        {
          "indexed": false,
          "internalType": "bool",
          "name": "approved",
          "type": "bool"
        }
      ],
      "name": "ApprovalForAll",
      "type": "event"
    },
    {
      "anonymous": false,
      "inputs": [
        {
          "indexed": true,
          "internalType": "address",
          "name": "from",
          "type": "address"
        },
        {
          "indexed": true,
          "internalType": "address",
          "name": "to",
          "type": "address"
        },
        {
          "indexed": true,
          "internalType": "uint256",
          "name": "tokenId",
          "type": "uint256"
        }
      ],
      "name": "Transfer",
      "type": "event"
    },
    {
      "inputs": [
        {
          "internalType": "bytes16",
          "name": "magic",
          "type": "bytes16"
        },
        {
          "internalType": "address",
          "name": "account",
          "type": "address"
        }
      ],
      "name": "addressAndSaltForMagic",
      "outputs": [
        {
          "internalType": "address",
          "name": "tokenId",
          "type": "address"
        },
        {
          "internalType": "bytes32",
          "name": "salt",
          "type": "bytes32"
        }
      ],
      "stateMutability": "view",
      "type": "function"
    },
    {
      "inputs": [
        {
          "internalType": "uint256",
          "name": "tokenId",
          "type": "uint256"
        }
      ],
      "name": "addressForTokenId",
      "outputs": [
        {
          "internalType": "address",
          "name": "",
          "type": "address"
        }
      ],
      "stateMutability": "pure",
      "type": "function"
    },
    {
      "inputs": [
        {
          "internalType": "address",
          "name": "to",
          "type": "address"
        },
        {
          "internalType": "uint256",
          "name": "tokenId",
          "type": "uint256"
        }
      ],
      "name": "approve",
      "outputs": [],
      "stateMutability": "nonpayable",
      "type": "function"
    },
    {
      "inputs": [
        {
          "internalType": "address",
          "name": "owner",
          "type": "address"
        }
      ],
      "name": "balanceOf",
      "outputs": [
        {
          "internalType": "uint256",
          "name": "",
          "type": "uint256"
        }
      ],
      "stateMutability": "view",
      "type": "function"
    },
    {
      "inputs": [
        {
          "internalType": "address",
          "name": "tokenId",
          "type": "address"
        },
        {
          "internalType": "bytes",
          "name": "creationCode",
          "type": "bytes"
        }
      ],
      "name": "deploy",
      "outputs": [
        {
          "internalType": "address",
          "name": "deployed",
          "type": "address"
        }
      ],
      "stateMutability": "payable",
      "type": "function"
    },
    {
      "inputs": [
        {
          "internalType": "address",
          "name": "tokenId",
          "type": "address"
        },
        {
          "internalType": "bytes",
          "name": "creationCode",
          "type": "bytes"
        },
        {
          "internalType": "bytes[]",
          "name": "cds",
          "type": "bytes[]"
        }
      ],
      "name": "deployAndCalls",
      "outputs": [
        {
          "internalType": "address",
          "name": "deployed",
          "type": "address"
        }
      ],
      "stateMutability": "payable",
      "type": "function"
    },
    {
      "inputs": [
        {
          "internalType": "uint256",
          "name": "tokenId",
          "type": "uint256"
        }
      ],
      "name": "getApproved",
      "outputs": [
        {
          "internalType": "address",
          "name": "",
          "type": "address"
        }
      ],
      "stateMutability": "view",
      "type": "function"
    },
    {
      "inputs": [
        {
          "internalType": "address",
          "name": "owner",
          "type": "address"
        },
        {
          "internalType": "address",
          "name": "operator",
          "type": "address"
        }
      ],
      "name": "isApprovedForAll",
      "outputs": [
        {
          "internalType": "bool",
          "name": "",
          "type": "bool"
        }
      ],
      "stateMutability": "view",
      "type": "function"
    },
    {
      "inputs": [
        {
          "internalType": "bytes16",
          "name": "magic",
          "type": "bytes16"
        }
      ],
      "name": "mint",
      "outputs": [
        {
          "internalType": "address",
          "name": "tokenId",
          "type": "address"
        }
      ],
      "stateMutability": "nonpayable",
      "type": "function"
    },
    {
      "inputs": [
        {
          "internalType": "bytes16",
          "name": "magic",
          "type": "bytes16"
        },
        {
          "internalType": "address",
          "name": "account",
          "type": "address"
        }
      ],
      "name": "mintFor",
      "outputs": [
        {
          "internalType": "address",
          "name": "tokenId",
          "type": "address"
        }
      ],
      "stateMutability": "nonpayable",
      "type": "function"
    },
    {
      "inputs": [],
      "name": "name",
      "outputs": [
        {
          "internalType": "string",
          "name": "",
          "type": "string"
        }
      ],
      "stateMutability": "view",
      "type": "function"
    },
    {
      "inputs": [
        {
          "internalType": "uint256",
          "name": "tokenId",
          "type": "uint256"
        }
      ],
      "name": "ownerOf",
      "outputs": [
        {
          "internalType": "address",
          "name": "",
          "type": "address"
        }
      ],
      "stateMutability": "view",
      "type": "function"
    },
    {
      "inputs": [
        {
          "internalType": "address",
          "name": "from",
          "type": "address"
        },
        {
          "internalType": "address",
          "name": "to",
          "type": "address"
        },
        {
          "internalType": "uint256",
          "name": "tokenId",
          "type": "uint256"
        }
      ],
      "name": "safeTransferFrom",
      "outputs": [],
      "stateMutability": "nonpayable",
      "type": "function"
    },
    {
      "inputs": [
        {
          "internalType": "address",
          "name": "from",
          "type": "address"
        },
        {
          "internalType": "address",
          "name": "to",
          "type": "address"
        },
        {
          "internalType": "uint256",
          "name": "tokenId",
          "type": "uint256"
        },
        {
          "internalType": "bytes",
          "name": "data",
          "type": "bytes"
        }
      ],
      "name": "safeTransferFrom",
      "outputs": [],
      "stateMutability": "nonpayable",
      "type": "function"
    },
    {
      "inputs": [
        {
          "internalType": "address",
          "name": "",
          "type": "address"
        }
      ],
      "name": "salts",
      "outputs": [
        {
          "internalType": "bytes32",
          "name": "",
          "type": "bytes32"
        }
      ],
      "stateMutability": "view",
      "type": "function"
    },
    {
      "inputs": [
        {
          "internalType": "address",
          "name": "operator",
          "type": "address"
        },
        {
          "internalType": "bool",
          "name": "approved",
          "type": "bool"
        }
      ],
      "name": "setApprovalForAll",
      "outputs": [],
      "stateMutability": "nonpayable",
      "type": "function"
    },
    {
      "inputs": [
        {
          "internalType": "bytes4",
          "name": "interfaceId",
          "type": "bytes4"
        }
      ],
      "name": "supportsInterface",
      "outputs": [
        {
          "internalType": "bool",
          "name": "",
          "type": "bool"
        }
      ],
      "stateMutability": "view",
      "type": "function"
    },
    {
      "inputs": [],
      "name": "symbol",
      "outputs": [
        {
          "internalType": "string",
          "name": "",
          "type": "string"
        }
      ],
      "stateMutability": "view",
      "type": "function"
    },
    {
      "inputs": [
        {
          "internalType": "uint256",
          "name": "tokenId",
          "type": "uint256"
        }
      ],
      "name": "tokenJSON",
      "outputs": [
        {
          "internalType": "string",
          "name": "",
          "type": "string"
        }
      ],
      "stateMutability": "pure",
      "type": "function"
    },
    {
      "inputs": [
        {
          "internalType": "uint256",
          "name": "tokenId",
          "type": "uint256"
        }
      ],
      "name": "tokenURI",
      "outputs": [
        {
          "internalType": "string",
          "name": "",
          "type": "string"
        }
      ],
      "stateMutability": "pure",
      "type": "function"
    },
    {
      "inputs": [
        {
          "internalType": "address",
          "name": "from",
          "type": "address"
        },
        {
          "internalType": "address",
          "name": "to",
          "type": "address"
        },
        {
          "internalType": "uint256",
          "name": "tokenId",
          "type": "uint256"
        }
      ],
      "name": "transferFrom",
      "outputs": [],
      "stateMutability": "nonpayable",
      "type": "function"
    }
  ],
  "transactionHash": "0x3ac97e92d7971980b5cb2c87b9963081cce68ddec7d154a380ded2ce5a3a75e7",
  "args": [],
  "numDeployments": 1,
  "solcInputHash": "0d958a261b1de33f61c1be17f37ee9fd",
  "bytecode": "0x6080346200030f576001600160401b039060409080820183811182821017620002fb57825260118152602092700c5a5b98da081059191c995cdcc8139195607a1b84830152825183810181811083821117620002fb57845260058152640c5053919560da1b85820152825190828211620002fb575f8054926001958685811c95168015620002f0575b89861014620002dc578190601f9586811162000289575b508990868311600114620002265784926200021a575b50505f19600383901b1c191690861b1781555b8151938411620002065784548581811c91168015620001fb575b88821014620001e7578381116200019f575b50869284116001146200013a578394959650926200012e575b50505f19600383901b1c191690821b1790555b516141659081620003148239f35b015190505f806200010d565b9190601f1984169685845280842093905b8882106200018757505083859697106200016e575b505050811b01905562000120565b01515f1960f88460031b161c191690555f808062000160565b8087859682949686015181550195019301906200014b565b8582528782208480870160051c8201928a8810620001dd575b0160051c019086905b828110620001d1575050620000f4565b838155018690620001c1565b92508192620001b8565b634e487b7160e01b82526022600452602482fd5b90607f1690620000e2565b634e487b7160e01b81526041600452602490fd5b015190505f80620000b5565b8480528a85208994509190601f198416865b8d82821062000272575050841162000259575b505050811b018155620000c8565b01515f1960f88460031b161c191690555f80806200024b565b8385015186558c9790950194938401930162000238565b9091508380528984208680850160051c8201928c8610620002d2575b918a91869594930160051c01915b828110620002c35750506200009f565b8681558594508a9101620002b3565b92508192620002a5565b634e487b7160e01b83526022600452602483fd5b94607f169462000088565b634e487b7160e01b5f52604160045260245ffd5b5f80fdfe608060409080825260049081361015610016575f80fd5b5f90813560e01c90816301ffc9a714610e785750806306fdde0314610d8f578063081812fc14610d3b578063095ea7b314610b3b5780630a9169721461099e578063193cd0a01461093257806323b872dd1461090857806342842e0e146108df5780636352211e1461088b57806370a082311461079d5780638f7bb1791461074a57806395d89b41146105df578063a22cb465146104b1578063a43b278014610450578063acc8f306146103f5578063b23e448014610393578063b88d4fde1461030d578063c87b56dd1461025c578063e97fac05146101d9578063e985e9c51461015c5763f9298d5114610109575f80fd5b346101595760207ffffffffffffffffffffffffffffffffffffffffffffffffffffffffffffffffc360112610159575073ffffffffffffffffffffffffffffffffffffffff602092519135168152f35b80fd5b5082346101d557807ffffffffffffffffffffffffffffffffffffffffffffffffffffffffffffffffc3601126101d55760ff8160209361019a610fca565b6101a2610ff1565b73ffffffffffffffffffffffffffffffffffffffff91821683526005875283832091168252855220549151911615158152f35b5080fd5b509190817ffffffffffffffffffffffffffffffffffffffffffffffffffffffffffffffffc3601126102585761020d610fca565b926024359067ffffffffffffffff8211610159575060209361024a73ffffffffffffffffffffffffffffffffffffffff9361025093369101611014565b91613db8565b915191168152f35b8280fd5b508290346101595760207ffffffffffffffffffffffffffffffffffffffffffffffffffffffffffffffffc36011261015957506102a461029f6103099335611ad7565b611920565b906102f7603d825180947f646174613a6170706c69636174696f6e2f6a736f6e3b6261736536342c00000060208301526102e78151809260208686019101610f66565b810103601d810185520183611152565b51918291602083526020830190610f87565b0390f35b5090346101d55760807ffffffffffffffffffffffffffffffffffffffffffffffffffffffffffffffffc3601126101d557610346610fca565b61034e610ff1565b9060643567ffffffffffffffff811161038f573660238201121561038f5761038c93816024610382933693013591016111cd565b916044359161137b565b80f35b8480fd5b5082346101d55760207ffffffffffffffffffffffffffffffffffffffffffffffffffffffffffffffffc3601126101d5578060209273ffffffffffffffffffffffffffffffffffffffff6103e5610fca565b1681526006845220549051908152f35b5082346101d55760207ffffffffffffffffffffffffffffffffffffffffffffffffffffffffffffffffc3601126101d55760209073ffffffffffffffffffffffffffffffffffffffff610250610449611042565b3390613bb2565b5082346101d557807ffffffffffffffffffffffffffffffffffffffffffffffffffffffffffffffffc3601126101d55760209073ffffffffffffffffffffffffffffffffffffffff6102506104a3611042565b6104ab610ff1565b90613bb2565b50913461025857807ffffffffffffffffffffffffffffffffffffffffffffffffffffffffffffffffc360112610258576104e9610fca565b906024359182151580930361038f5773ffffffffffffffffffffffffffffffffffffffff1692833314610583575033845260056020528084208385526020528084207fffffffffffffffffffffffffffffffffffffffffffffffffffffffffffffff0081541660ff8416179055519081527f17307eab39ab6107e8899845ad3d59bd9653f200f220920489ca2b5937696c3160203392a380f35b602060649251917f08c379a0000000000000000000000000000000000000000000000000000000008352820152601960248201527f4552433732313a20617070726f766520746f2063616c6c6572000000000000006044820152fd5b5082903461015957807ffffffffffffffffffffffffffffffffffffffffffffffffffffffffffffffffc360112610159578151918160019283549384811c91818616958615610740575b6020968785108114610714578899509688969785829a5291825f146106cf575050600114610674575b5050506103099291610665910385611152565b51928284938452830190610f87565b91908693508083527fb10e2d527612073b26eecdfd717e6a320cf44b4afac2b0732d9fcbe2b7fa0cf65b8284106106b75750505082010181610665610309610652565b8054848a01860152889550879490930192810161069e565b7fffffffffffffffffffffffffffffffffffffffffffffffffffffffffffffff00168782015293151560051b8601909301935084925061066591506103099050610652565b60248360228c7f4e487b7100000000000000000000000000000000000000000000000000000000835252fd5b92607f1692610629565b508290346101595760207ffffffffffffffffffffffffffffffffffffffffffffffffffffffffffffffffc360112610159575061078a6103099235611ad7565b9051918291602083526020830190610f87565b5090346101d55760207ffffffffffffffffffffffffffffffffffffffffffffffffffffffffffffffffc3601126101d55773ffffffffffffffffffffffffffffffffffffffff6107eb610fca565b169081156108085760208480858581526003845220549051908152f35b60849060208551917f08c379a0000000000000000000000000000000000000000000000000000000008352820152602960248201527f4552433732313a2061646472657373207a65726f206973206e6f74206120766160448201527f6c6964206f776e657200000000000000000000000000000000000000000000006064820152fd5b508290346101595760207ffffffffffffffffffffffffffffffffffffffffffffffffffffffffffffffffc360112610159575073ffffffffffffffffffffffffffffffffffffffff61025060209335611268565b5082346101d55761038c906108f336611071565b91925192610900846110d1565b85845261137b565b50346101595761038c61091a36611071565b9161092d610928843361142b565b6112f0565b61152d565b83823461015957817ffffffffffffffffffffffffffffffffffffffffffffffffffffffffffffffffc360112610159575061097c61096e611042565b610976610ff1565b90613b2f565b73ffffffffffffffffffffffffffffffffffffffff8351921682526020820152f35b509060607ffffffffffffffffffffffffffffffffffffffffffffffffffffffffffffffffc3601126101d5576109d2610fca565b60249167ffffffffffffffff8335818111610b33576109f49036908401611014565b959091604492833597828911610b37573660238a011215610b3757888601359183831161038f57600597368a858b1b8d010111610b335790610a399291989398613db8565b9783917fffffffffffffffffffffffffffffffffffffffffffffffffffffffffffffffbd82360301925b888110610a8a5760208b73ffffffffffffffffffffffffffffffffffffffff8e5191168152f35b8981831b8401013584811215610b2f5783018a81013590868211610b2b5788018136038113610b2b578c828f8a949385948592519384928337810182815203925af1610ad46116b0565b9015610ae95750610ae490613988565b610a63565b610b278991898f8e81519687967f3b4c7a5f000000000000000000000000000000000000000000000000000000008852870152850152830190610f87565b0390fd5b8780fd5b8680fd5b8580fd5b8380fd5b5091903461025857817ffffffffffffffffffffffffffffffffffffffffffffffffffffffffffffffffc36011261025857610b74610fca565b906024359273ffffffffffffffffffffffffffffffffffffffff918280610b9a87611268565b16941693808514610cb857803314908115610c99575b5015610c17578486526020528420827fffffffffffffffffffffffff0000000000000000000000000000000000000000825416179055610bef83611268565b167f8c5be1e5ebec7d5bd14f71427d1e84f3dd0314c0f7b2291e5b200ac8c7c3b9258480a480f35b602060849251917f08c379a0000000000000000000000000000000000000000000000000000000008352820152603d60248201527f4552433732313a20617070726f76652063616c6c6572206973206e6f7420746f60448201527f6b656e206f776e6572206f7220617070726f76656420666f7220616c6c0000006064820152fd5b90508652600560205281862033875260205260ff82872054165f610bb0565b50602060849251917f08c379a0000000000000000000000000000000000000000000000000000000008352820152602160248201527f4552433732313a20617070726f76616c20746f2063757272656e74206f776e6560448201527f72000000000000000000000000000000000000000000000000000000000000006064820152fd5b508290346101595760207ffffffffffffffffffffffffffffffffffffffffffffffffffffffffffffffffc360112610159575073ffffffffffffffffffffffffffffffffffffffff61025060209335611298565b5082903461015957807ffffffffffffffffffffffffffffffffffffffffffffffffffffffffffffffffc3601126101595781519181825492600184811c91818616958615610e6e575b6020968785108114610714578899509688969785829a5291825f146106cf575050600114610e13575050506103099291610665910385611152565b91908693508280527f290decd9548b62a8d60345a988386fc84ba6bc95484008f6362f93160ef3e5635b828410610e565750505082010181610665610309610652565b8054848a018601528895508794909301928101610e3d565b92607f1692610dd8565b905082346102585760207ffffffffffffffffffffffffffffffffffffffffffffffffffffffffffffffffc36011261025857357fffffffff00000000000000000000000000000000000000000000000000000000811680910361025857602092507f80ac58cd000000000000000000000000000000000000000000000000000000008114908115610f3c575b8115610f12575b5015158152f35b7f01ffc9a70000000000000000000000000000000000000000000000000000000091501483610f0b565b7f5b5e139f0000000000000000000000000000000000000000000000000000000081149150610f04565b5f5b838110610f775750505f910152565b8181015183820152602001610f68565b907fffffffffffffffffffffffffffffffffffffffffffffffffffffffffffffffe0601f602093610fc381518092818752878088019101610f66565b0116010190565b6004359073ffffffffffffffffffffffffffffffffffffffff82168203610fed57565b5f80fd5b6024359073ffffffffffffffffffffffffffffffffffffffff82168203610fed57565b9181601f84011215610fed5782359167ffffffffffffffff8311610fed5760208381860195010111610fed57565b600435907fffffffffffffffffffffffffffffffff0000000000000000000000000000000082168203610fed57565b7ffffffffffffffffffffffffffffffffffffffffffffffffffffffffffffffffc6060910112610fed5773ffffffffffffffffffffffffffffffffffffffff906004358281168103610fed57916024359081168103610fed579060443590565b6020810190811067ffffffffffffffff8211176110ed57604052565b7f4e487b71000000000000000000000000000000000000000000000000000000005f52604160045260245ffd5b6060810190811067ffffffffffffffff8211176110ed57604052565b6040810190811067ffffffffffffffff8211176110ed57604052565b90601f7fffffffffffffffffffffffffffffffffffffffffffffffffffffffffffffffe0910116810190811067ffffffffffffffff8211176110ed57604052565b67ffffffffffffffff81116110ed57601f017fffffffffffffffffffffffffffffffffffffffffffffffffffffffffffffffe01660200190565b9291926111d982611193565b916111e76040519384611152565b829481845281830111610fed578281602093845f960137010152565b1561120a57565b60646040517f08c379a000000000000000000000000000000000000000000000000000000000815260206004820152601860248201527f4552433732313a20696e76616c696420746f6b656e20494400000000000000006044820152fd5b5f52600260205273ffffffffffffffffffffffffffffffffffffffff60405f205416611295811515611203565b90565b6112cb6112c6825f52600260205273ffffffffffffffffffffffffffffffffffffffff60405f205416151590565b611203565b5f52600460205273ffffffffffffffffffffffffffffffffffffffff60405f20541690565b156112f757565b60846040517f08c379a000000000000000000000000000000000000000000000000000000000815260206004820152602d60248201527f4552433732313a2063616c6c6572206973206e6f7420746f6b656e206f776e6560448201527f72206f7220617070726f766564000000000000000000000000000000000000006064820152fd5b9061139f93929161138f610928843361142b565b61139a83838361152d565b6116df565b156113a657565b6040517f08c379a000000000000000000000000000000000000000000000000000000000815260206004820152603260248201527f4552433732313a207472616e7366657220746f206e6f6e20455243373231526560448201527f63656976657220696d706c656d656e74657200000000000000000000000000006064820152608490fd5b9073ffffffffffffffffffffffffffffffffffffffff808061144c84611268565b1693169183831493841561147f575b508315611469575b50505090565b61147591929350611298565b16145f8080611463565b9093505f52600560205260405f20825f5260205260ff60405f205416925f61145b565b156114a957565b60846040517f08c379a000000000000000000000000000000000000000000000000000000000815260206004820152602560248201527f4552433732313a207472616e736665722066726f6d20696e636f72726563742060448201527f6f776e65720000000000000000000000000000000000000000000000000000006064820152fd5b906115629161153b84611268565b9173ffffffffffffffffffffffffffffffffffffffff9384938480941694859116146114a2565b1691821561162d578161157f9161157886611268565b16146114a2565b7fddf252ad1be2c89b69c2b068fc378daa952ba7f163c4a11628f55a4df523b3ef5f8481526004602052604081207fffffffffffffffffffffffff0000000000000000000000000000000000000000908181541690558382526003602052604082207fffffffffffffffffffffffffffffffffffffffffffffffffffffffffffffffff81540190558482526040822060018154019055858252600260205284604083209182541617905580a4565b60846040517f08c379a0000000000000000000000000000000000000000000000000000000008152602060048201526024808201527f4552433732313a207472616e7366657220746f20746865207a65726f2061646460448201527f72657373000000000000000000000000000000000000000000000000000000006064820152fd5b3d156116da573d906116c182611193565b916116cf6040519384611152565b82523d5f602084013e565b606090565b919290803b1561188e576117569160209160405180809581947f150b7a0200000000000000000000000000000000000000000000000000000000998a845233600485015273ffffffffffffffffffffffffffffffffffffffff809a1660248501526044840152608060648401526084830190610f87565b03915f968791165af19082908261182e575b5050611808576117766116b0565b80519081611803576040517f08c379a000000000000000000000000000000000000000000000000000000000815260206004820152603260248201527f4552433732313a207472616e7366657220746f206e6f6e20455243373231526560448201527f63656976657220696d706c656d656e74657200000000000000000000000000006064820152608490fd5b602001fd5b7fffffffff00000000000000000000000000000000000000000000000000000000161490565b909192506020813d8211611886575b8161184a60209383611152565b810103126101d55751907fffffffff00000000000000000000000000000000000000000000000000000000821682036101595750905f80611768565b3d915061183d565b50505050600190565b919082018092116118a457565b7f4e487b71000000000000000000000000000000000000000000000000000000005f52601160045260245ffd5b906118db82611193565b6118e86040519182611152565b8281527fffffffffffffffffffffffffffffffffffffffffffffffffffffffffffffffe06119168294611193565b0190602036910137565b805115611ac4576040516119338161111a565b604081527f4142434445464748494a4b4c4d4e4f505152535455565758595a61626364656660208201527f6768696a6b6c6d6e6f707172737475767778797a303132333435363738392b2f604082015281516002928382018092116118a45760038092047f3fffffffffffffffffffffffffffffffffffffffffffffffffffffffffffffff811681036118a4576119cd908594951b6118d1565b936020850193829183518401925b838110611a735750505050510680600114611a24576002146119fb575090565b7fffffffffffffffffffffffffffffffffffffffffffffffffffffffffffffffff603d91015390565b507ffffffffffffffffffffffffffffffffffffffffffffffffffffffffffffffffe81603d7fffffffffffffffffffffffffffffffffffffffffffffffffffffffffffffffff81940153015390565b85600491979293949701918251600190603f9082828260121c16880101518453828282600c1c16880101518385015382828260061c16880101518885015316850101518782015301959291906119db565b50604051611ad1816110d1565b5f815290565b9060405191611ae58361111a565b602a83526040366020850137825115612bb15760306020840153825160011015612bb1576078602184015360295b600181116138d1575061387357604051611b2c8161111a565b602a815260403660208301376060916001845160021015612bb1577fff000000000000000000000000000000000000000000000000000000000000006022869593950151169060035b602a8110613368575050506060906028915b60058310158061335f575b15611ef557506060906002935b602a848103116118a45783602a038511611ee85783611bbe868361394c565b5160f81c1015611ede575f91825b8560011c841080611e37575b15611bf557611be9611bef91613988565b93613988565b92611bcc565b9092509490948460011c14611c1357611c0d90613988565b93611b9f565b611d856055611d8b939794868460027f0a09097d2c0a000000000000000000000000000000000000000000000000000096145f14611d945750605c8592611c5c611cec936139c2565b6040519482611c75879451809260208088019101610f66565b83017f09097b0a0909092274726169745f74797065223a202250616c696e64726f6d6560208201527f20707265666978222c0a0909092276616c7565223a20000000000000000000006040820152825190611cd98260569560208785019101610f66565b019182015203603c810184520182611152565b611cf5876139c2565b6040519482611d0e879451809260208088019101610f66565b83017f09097b0a0909092274726169745f74797065223a202250616c696e64726f6d6560208201527f222c0a0909092276616c7565223a2000000000000000000000000000000000006040820152825190611d7282604f9560208785019101610f66565b0191820152036035810184520182611152565b9261395d565b91939093611b87565b602a91611da091611897565b03611cec57611e32605c8592611db58a6139c2565b6040519482611dce879451809260208088019101610f66565b83017f09097b0a0909092274726169745f74797065223a202250616c696e64726f6d6560208201527f20737566666978222c0a0909092276616c7565223a20000000000000000000006040820152825190611cd98260569560208785019101610f66565b611cec565b507fff00000000000000000000000000000000000000000000000000000000000000611e6c611e66868a611897565b8b61394c565b5116611e788789611897565b7fffffffffffffffffffffffffffffffffffffffffffffffffffffffffffffffff81019081116118a457611ed6611ed0877fff00000000000000000000000000000000000000000000000000000000000000936139b5565b8c61394c565b511614611bd8565b93611c0d90613988565b93509390611d8b90611d85565b949392509050606091604051610260810181811067ffffffffffffffff8211176110ed5780604052611f2681611136565b600481527f64656164000000000000000000000000000000000000000000000000000000006102808301528152604051611f5f81611136565b600481527f626565660000000000000000000000000000000000000000000000000000000060208201526020820152604051611f9a81611136565b600681527f633066666565000000000000000000000000000000000000000000000000000060208201526040820152604051611fd581611136565b600481527f646566310000000000000000000000000000000000000000000000000000000060208201528482015260405161200f81611136565b600481527f31656537000000000000000000000000000000000000000000000000000000006020820152608082015260405161204a81611136565b600481527f3133333700000000000000000000000000000000000000000000000000000000602082015260a082015260405161208581611136565b600481527f6261626500000000000000000000000000000000000000000000000000000000602082015260c08201526040516120c081611136565b600481527f6630306400000000000000000000000000000000000000000000000000000000602082015260e08201526040516120fb81611136565b600681527f6465633064650000000000000000000000000000000000000000000000000000602082015261010082015260405161213781611136565b600681527f6661636164650000000000000000000000000000000000000000000000000000602082015261012082015260405161217381611136565b600681527f646563616465000000000000000000000000000000000000000000000000000060208201526101408201526040516121af81611136565b600481527f666565640000000000000000000000000000000000000000000000000000000060208201526101608201526040516121eb81611136565b600481527f6661636500000000000000000000000000000000000000000000000000000000602082015261018082015260405161222781611136565b600481527f633064650000000000000000000000000000000000000000000000000000000060208201526101a082015260405161226381611136565b600581527f633063306100000000000000000000000000000000000000000000000000000060208201526101c082015260405161229f81611136565b600581527f636163613000000000000000000000000000000000000000000000000000000060208201526101e08201526040516122db81611136565b600481527f6361666500000000000000000000000000000000000000000000000000000000602082015261020082015260405161231781611136565b600481527f3565656400000000000000000000000000000000000000000000000000000000602082015261022082015260405161235381611136565b600481527f356531660000000000000000000000000000000000000000000000000000000060208201526102408201525f905b60138210612f425750505f60025b602a8110612e3d57506123a6906139c2565b93612447605560405180977f09097b0a0909092274726169745f74797065223a20225a65726f20627974657360208301527f222c0a0909092276616c7565223a2000000000000000000000000000000000006040830152612411815180926020604f86019101610f66565b81017f0a09097d2c0a0000000000000000000000000000000000000000000000000000604f820152036035810188520186611152565b606095604051938461012081011067ffffffffffffffff610120870111176110ed576101208501604052610100855261010036602087013760025b602a8110612dc757506040519561249887611136565b601087527f303132333435363738396162636465660000000000000000000000000000000060208801525f985b87518a10156125f057876125e460536125ea9361252d7fff000000000000000000000000000000000000000000000000000000000000008f808e61251c61250f612525948b61394c565b519160f892831c9061394c565b51901c9761394c565b5116946139c2565b7f0a09097d2c0a00000000000000000000000000000000000000000000000000006040519583612567889551809260208089019101610f66565b8401907f09097b0a0909092274726169745f74797065223a202253796d626f6c200000006020830152603d8201527f222c0a0909092276616c7565223a200000000000000000000000000000000000603e8201528251906125d182604d9560208785019101610f66565b0191820152036033810184520182611152565b99613988565b986124c5565b93979296509397509350606060018060025b602a8110612c4957509160209593916127009795935f14612bde57505060405161262b8161111a565b602881527f09097b0a0909092274726169745f74797065223a2022446967697473206f6e6c868201527f79220a09097d2c0a0000000000000000000000000000000000000000000000006040820152925b60405197856126948a975180928a808b019101610f66565b86016126a8825180938a8085019101610f66565b016126bb82518093898085019101610f66565b016126ce82518093888085019101610f66565b016126e182518093878085019101610f66565b016126f482518093868085019101610f66565b01038084520182611152565b7ffffffffffffffffffffffffffffffffffffffffffffffffffffffffffffffffe80825101825280835101602284012060025b602a8110612a98575050506101577f095d0a00000000000000000000000000000000000000000000000000000000009282611295935115155f905f14612a83575060405161278081611136565b600181527f0a000000000000000000000000000000000000000000000000000000000000006020820152905b6040519586927f7b0a00000000000000000000000000000000000000000000000000000000000060208501527f09226e616d65223a20224465706c6f7920746f2000000000000000000000000060228501528451612811816036870160208901610f66565b8401947f222c0a0000000000000000000000000000000000000000000000000000000000958660368201527f09226465736372697074696f6e223a2022456e61626c657320686f6c6465722060398201527f746f206465706c6f792061726269747261727920736d61727420636f6e74726160598201527f637420746f20000000000000000000000000000000000000000000000000000060798201528151906128c282607f830160208601610f66565b0186607f8201527f092265787465726e616c5f75726c223a202268747470733a2f2f65746865727360828201527f63616e2e696f2f616464726573732f000000000000000000000000000000000060a282015261292982518093602060b185019101610f66565b01948060b18701527f0922696d616765223a2022697066733a2f2f516d5a5733545464744b38376b7460b48701527f786d683650473555756d62746f5758553872564241706f36356f6b6e656b6d6360d487015260f48601527f0922616e696d6174696f6e5f75726c223a2022697066733a2f2f516d5a4b703360f78601527f4b376f794446506b5655585567444b715a3652634c5a593751573236374a7658610117860152610137947f52544c5731716147222c0a000000000000000000000000000000000000000000868201527f092261747472696275746573223a205b0a000000000000000000000000000000610142820152835190612a36826101539660208885019101610f66565b01612a4a8251809360208785019101610f66565b01918201527f7d000000000000000000000000000000000000000000000000000000000000006101568201520390810184520182611152565b60405190612a90826110d1565b8152906127ac565b8281018181116118a45760011c6020811015612bb157826007911a60018316155f14612ba95760041c5b1180612b54575b612adc575b612ad790613988565b612733565b612ae6818661394c565b51907fffffffffffffffffffffffffffffffffffffffffffffffffffffffffffffffe060f892831c019160ff83116118a457612ad7927fff00000000000000000000000000000000000000000000000000000000000000911b165f1a612b4c828861394c565b539050612ace565b507f39000000000000000000000000000000000000000000000000000000000000007fff00000000000000000000000000000000000000000000000000000000000000612ba1838861394c565b511611612ac9565b600f16612ac2565b7f4e487b71000000000000000000000000000000000000000000000000000000005f52603260045260245ffd5b9390931561267c579250604051612bf48161111a565b602981527f09097b0a0909092274726169745f74797065223a20224c657474657273206f6e868201527f6c79220a09097d2c0a000000000000000000000000000000000000000000000060408201529261267c565b7f30000000000000000000000000000000000000000000000000000000000000007fff00000000000000000000000000000000000000000000000000000000000000612c95838d61394c565b5116108015612d72575b612d6a575b7f61000000000000000000000000000000000000000000000000000000000000007fff00000000000000000000000000000000000000000000000000000000000000612cf0838d61394c565b5116108015612d15575b612d0d575b612d0890613988565b612602565b5f9250612cff565b507f66000000000000000000000000000000000000000000000000000000000000007fff00000000000000000000000000000000000000000000000000000000000000612d62838d61394c565b511611612cfa565b5f9150612ca4565b507f39000000000000000000000000000000000000000000000000000000000000007fff00000000000000000000000000000000000000000000000000000000000000612dbf838d61394c565b511611612c9f565b6001612de0612dd6838761394c565b5160f81c8861394c565b5160f81c019060ff82116118a457612e3891612e327fff00000000000000000000000000000000000000000000000000000000000000612e20848961394c565b5160f81c9260f81b165f1a918961394c565b53613988565b612482565b7f30000000000000000000000000000000000000000000000000000000000000007fff00000000000000000000000000000000000000000000000000000000000000612e89838961394c565b51161480612ee0575b612ed0575b6002810180911115612394577f4e487b71000000000000000000000000000000000000000000000000000000005f52601160045260245ffd5b90612eda90613988565b90612e97565b506001810181116118a4577f30000000000000000000000000000000000000000000000000000000000000007fff00000000000000000000000000000000000000000000000000000000000000612f3a600184018961394c565b511614612e92565b9181600597959492971b830151936060925f946002975b8751602a03602a81116118a4578911613232575f92835b895185108c868d836131c3575b50505015612f9d57612f91612f9791613988565b94613988565b93612f70565b9093509890939491988851809114612fc3575b50612fba90613988565b97909392612f59565b600282989792145f146130f457507f220a09097d2c0a0000000000000000000000000000000000000000000000000061308c6058613092938b6040519482613015879451809260208088019101610f66565b83017f09097b0a0909092274726169745f74797065223a2022576f726420707265666960208201527f78222c0a0909092276616c7565223a202200000000000000000000000000000060408201528251906130798260519560208785019101610f66565b0191820152036038810184520182611152565b95613988565b958751807fffffffffffffffffffffffffffffffffffffffffffffffffffffffffffffffff8101116118a457612fba917fffffffffffffffffffffffffffffffffffffffffffffffffffffffffffffffff6130ee920190611897565b90612fb0565b613103602a9189989398611897565b14613112575b61309290613988565b947f220a09097d2c0a000000000000000000000000000000000000000000000000006131bb6058613092938b6040519482613157879451809260208088019101610f66565b83017f09097b0a0909092274726169745f74797065223a2022576f726420737566666960208201527f78222c0a0909092276616c7565223a202200000000000000000000000000000060408201528251906130798260519560208785019101610f66565b959050613109565b7fff0000000000000000000000000000000000000000000000000000000000000093506131fa92916131f491611897565b9061394c565b51167fff00000000000000000000000000000000000000000000000000000000000000613227878d61394c565b5116148c868d612f7d565b9997509391909561327893958061327e575b50506020612f919160405193816132648693518092868087019101610f66565b82016126f482518093868085019101610f66565b90612386565b6133586050612f9194956020947f0a09097d2c0a00000000000000000000000000000000000000000000000000006132d67f222c0a0909092276616c7565223a200000000000000000000000000000000000966139c2565b9160405196846132ef89965180928c808a019101610f66565b85017f09097b0a0909092274726169745f74797065223a2022576f72642000000000008a82015282519061332b82603b958d8785019101610f66565b019182015282519061334582604a958b8785019101610f66565b0191820152036030810184520182611152565b9291613244565b50805115611b92565b7fff00000000000000000000000000000000000000000000000000000000000000613396828998969861394c565b51167fff00000000000000000000000000000000000000000000000000000000000000841614613863575b7fff0000000000000000000000000000000000000000000000000000000000000083167fff0000000000000000000000000000000000000000000000000000000000000061340f838a61394c565b511614801590613859575b613430575b61342890613988565b949294611b75565b919060048082101561347a575b50505060016134287fff00000000000000000000000000000000000000000000000000000000000000613470848961394c565b511692905061341f565b600282939792019081841161382d5750605c7f0a09097d2c0a0000000000000000000000000000000000000000000000000000928561366993145f1461374557613595827fff00000000000000000000000000000000000000000000000000000000000000926134e9886139c2565b878d604051968461350489965180926020808a019101610f66565b8501917f09097b0a0909092274726169745f74797065223a20225265706561746564207060208401527f726566697820000000000000000000000000000000000000000000000000000060408401521660468201527f222c0a0909092276616c7565223a2000000000000000000000000000000000006047820152825190611cd98260569560208785019101610f66565b61359e856139c2565b60405194826135b7879451809260208088019101610f66565b83017f09097b0a0909092274726169745f74797065223a20225265706561746564207360208201527f796d626f6c20000000000000000000000000000000000000000000000000000060408201527fff000000000000000000000000000000000000000000000000000000000000008c1660468201527f222c0a0909092276616c7565223a2000000000000000000000000000000000006047820152825190611cd98260569560208785019101610f66565b945f5b8281101561343d57807fff000000000000000000000000000000000000000000000000000000000000006136a361372993866139b5565b60f81b167fff0000000000000000000000000000000000000000000000000000000000000084167fff000000000000000000000000000000000000000000000000000000000000006136f5888d61394c565b51161461372e57612e3261371f8361371a8861371560ff5f5b168c611897565b6139b5565b611897565b915f1a918961394c565b61366c565b612e3261371f8361371a8861371560ff600161370e565b6029860361359557613828827fff000000000000000000000000000000000000000000000000000000000000009261377c886139c2565b878d604051968461379789965180926020808a019101610f66565b8501917f09097b0a0909092274726169745f74797065223a20225265706561746564207360208401527f756666697820000000000000000000000000000000000000000000000000000060408401521660468201527f222c0a0909092276616c7565223a2000000000000000000000000000000000006047820152825190611cd98260569560208785019101610f66565b613595565b6011907f4e487b71000000000000000000000000000000000000000000000000000000005f525260245ffd5b506029811461341a565b9061386d90613988565b906133c1565b60646040517f08c379a000000000000000000000000000000000000000000000000000000000815260206004820152602060248201527f537472696e67733a20686578206c656e67746820696e73756666696369656e746044820152fd5b90600f811690601082101561391f577f303132333435363738396162636465660000000000000000000000000000000061391a921a613910848761394c565b5360041c9161395d565b611b13565b60245f7f4e487b710000000000000000000000000000000000000000000000000000000081526032600452fd5b908151811015612bb1570160200190565b80156118a4577fffffffffffffffffffffffffffffffffffffffffffffffffffffffffffffffff0190565b7fffffffffffffffffffffffffffffffffffffffffffffffffffffffffffffffff81146118a45760010190565b919082039182116118a457565b805f917a184f03e93ff9f4daa797ed6e38ed64bf6a1f01000000000000000080821015613b21575b506d04ee2d6d415b85acef810000000080831015613b12575b50662386f26fc1000080831015613b03575b506305f5e10080831015613af4575b5061271080831015613ae5575b506064821015613ad5575b600a80921015613acb575b600190816021613a588287016118d1565b95860101905b613a6a575b5050505090565b7fffffffffffffffffffffffffffffffffffffffffffffffffffffffffffffffff849101917f30313233343536373839616263646566000000000000000000000000000000008282061a835304918215613ac657919082613a5e565b613a63565b9160010191613a47565b9190606460029104910191613a3c565b6004919392049101915f613a31565b6008919392049101915f613a24565b6010919392049101915f613a15565b6020919392049101915f613a03565b60409350810491505f6139ea565b907fffffffffffffffffffffffffffffffff00000000000000000000000000000000906040517fffffffffffffffffffffffffffffffffffffffff000000000000000000000000602082019260601b16825260148152613b8e81611136565b5190206fffffffffffffffffffffffffffffffff16911617613baf8161401c565b91565b81613bbf91939293613b2f565b90928373ffffffffffffffffffffffffffffffffffffffff809116925f918483526020936006855260409283852054613d2a57868552600686528385205516928315613ccf57600290613c3c613c36875f52600260205273ffffffffffffffffffffffffffffffffffffffff60405f205416151590565b15613d53565b613c6a613c36875f52600260205273ffffffffffffffffffffffffffffffffffffffff60405f205416151590565b8484526003815282842060018154019055858452528120827fffffffffffffffffffffffff00000000000000000000000000000000000000008254161790557fddf252ad1be2c89b69c2b068fc378daa952ba7f163c4a11628f55a4df523b3ef8180a4565b60649151907f08c379a000000000000000000000000000000000000000000000000000000000825280600483015260248201527f4552433732313a206d696e7420746f20746865207a65726f20616464726573736044820152fd5b600484517f8cde2bfc000000000000000000000000000000000000000000000000000000008152fd5b15613d5a57565b60646040517f08c379a000000000000000000000000000000000000000000000000000000000815260206004820152601c60248201527f4552433732313a20746f6b656e20616c7265616479206d696e746564000000006044820152fd5b9173ffffffffffffffffffffffffffffffffffffffff8093169183613ddc84611268565b163303613fb957613dec83611268565b50613df683611268565b91613ead5f92858452602095600487528460409689888320917fffffffffffffffffffffffff000000000000000000000000000000000000000092838154169055169081835260038a528883207fffffffffffffffffffffffffffffffffffffffffffffffffffffffffffffffff815401905583835260028a528883209081541690557fddf252ad1be2c89b69c2b068fc378daa952ba7f163c4a11628f55a4df523b3ef8280a460068652848420549236916111cd565b9080613eb7613fe3565b868151910185f595861615613f5c5790613ed1839261401c565b9585825192019034905af1613ee46116b0565b5080613f52575b15613ef557505090565b6064925051907f08c379a00000000000000000000000000000000000000000000000000000000082526004820152601560248201527f494e495449414c495a4154494f4e5f4641494c454400000000000000000000006044820152fd5b50823b1515613eeb565b6064858551907f08c379a00000000000000000000000000000000000000000000000000000000082526004820152601160248201527f4445504c4f594d454e545f4641494c45440000000000000000000000000000006044820152fd5b60046040517f4ca88867000000000000000000000000000000000000000000000000000000008152fd5b60405190613ff082611136565b601082527f67363d3d37363d34f03d5260086018f3000000000000000000000000000000006020830152565b614024613fe3565b602081519101206040519060208201927fff0000000000000000000000000000000000000000000000000000000000000084523060601b602184015260358301526055820152605581526080810181811067ffffffffffffffff8211176110ed577f010000000000000000000000000000000000000000000000000000000000000060b673ffffffffffffffffffffffffffffffffffffffff948360405284519020937fffffffffffffffffffffffffffffffffffffffff00000000000000000000000060a08201957fd694000000000000000000000000000000000000000000000000000000000000875260601b1660a282015201526017815261412881611136565b519020169056fea2646970667358221220b51fa6703c61133b5bdbad06616ce776efabb58d75a4883b4b9195e1cce4988964736f6c63430008140033",
  "devdoc": {
    "events": {
      "Approval(address,address,uint256)": {
        "details": "Emitted when `owner` enables `approved` to manage the `tokenId` token."
      },
      "ApprovalForAll(address,address,bool)": {
        "details": "Emitted when `owner` enables or disables (`approved`) `operator` to manage all of its assets."
      },
      "Transfer(address,address,uint256)": {
        "details": "Emitted when `tokenId` token is transferred from `from` to `to`."
      }
    },
    "kind": "dev",
    "methods": {
      "approve(address,uint256)": {
        "details": "See {IERC721-approve}."
      },
      "balanceOf(address)": {
        "details": "See {IERC721-balanceOf}."
      },
      "getApproved(uint256)": {
        "details": "See {IERC721-getApproved}."
      },
      "isApprovedForAll(address,address)": {
        "details": "See {IERC721-isApprovedForAll}."
      },
      "name()": {
        "details": "See {IERC721Metadata-name}."
      },
      "ownerOf(uint256)": {
        "details": "See {IERC721-ownerOf}."
      },
      "safeTransferFrom(address,address,uint256)": {
        "details": "See {IERC721-safeTransferFrom}."
      },
      "safeTransferFrom(address,address,uint256,bytes)": {
        "details": "See {IERC721-safeTransferFrom}."
      },
      "setApprovalForAll(address,bool)": {
        "details": "See {IERC721-setApprovalForAll}."
      },
      "supportsInterface(bytes4)": {
        "details": "See {IERC165-supportsInterface}."
      },
      "symbol()": {
        "details": "See {IERC721Metadata-symbol}."
      },
      "tokenURI(uint256)": {
        "details": "See {IERC721Metadata-tokenURI}."
      },
      "transferFrom(address,address,uint256)": {
        "details": "See {IERC721-transferFrom}."
      }
    },
    "version": 1
  },
  "userdoc": {
    "kind": "user",
    "methods": {},
    "version": 1
  },
  "storageLayout": {
    "storage": [
      {
        "astId": 25,
        "contract": "contracts/AddressToken.sol:AddressToken",
        "label": "_name",
        "offset": 0,
        "slot": "0",
        "type": "t_string_storage"
      },
      {
        "astId": 27,
        "contract": "contracts/AddressToken.sol:AddressToken",
        "label": "_symbol",
        "offset": 0,
        "slot": "1",
        "type": "t_string_storage"
      },
      {
        "astId": 31,
        "contract": "contracts/AddressToken.sol:AddressToken",
        "label": "_owners",
        "offset": 0,
        "slot": "2",
        "type": "t_mapping(t_uint256,t_address)"
      },
      {
        "astId": 35,
        "contract": "contracts/AddressToken.sol:AddressToken",
        "label": "_balances",
        "offset": 0,
        "slot": "3",
        "type": "t_mapping(t_address,t_uint256)"
      },
      {
        "astId": 39,
        "contract": "contracts/AddressToken.sol:AddressToken",
        "label": "_tokenApprovals",
        "offset": 0,
        "slot": "4",
        "type": "t_mapping(t_uint256,t_address)"
      },
      {
        "astId": 45,
        "contract": "contracts/AddressToken.sol:AddressToken",
        "label": "_operatorApprovals",
        "offset": 0,
        "slot": "5",
        "type": "t_mapping(t_address,t_mapping(t_address,t_bool))"
      },
      {
        "astId": 2753,
        "contract": "contracts/AddressToken.sol:AddressToken",
        "label": "salts",
        "offset": 0,
        "slot": "6",
        "type": "t_mapping(t_address,t_bytes32)"
      }
    ],
    "types": {
      "t_address": {
        "encoding": "inplace",
        "label": "address",
        "numberOfBytes": "20"
      },
      "t_bool": {
        "encoding": "inplace",
        "label": "bool",
        "numberOfBytes": "1"
      },
      "t_bytes32": {
        "encoding": "inplace",
        "label": "bytes32",
        "numberOfBytes": "32"
      },
      "t_mapping(t_address,t_bool)": {
        "encoding": "mapping",
        "key": "t_address",
        "label": "mapping(address => bool)",
        "numberOfBytes": "32",
        "value": "t_bool"
      },
      "t_mapping(t_address,t_bytes32)": {
        "encoding": "mapping",
        "key": "t_address",
        "label": "mapping(address => bytes32)",
        "numberOfBytes": "32",
        "value": "t_bytes32"
      },
      "t_mapping(t_address,t_mapping(t_address,t_bool))": {
        "encoding": "mapping",
        "key": "t_address",
        "label": "mapping(address => mapping(address => bool))",
        "numberOfBytes": "32",
        "value": "t_mapping(t_address,t_bool)"
      },
      "t_mapping(t_address,t_uint256)": {
        "encoding": "mapping",
        "key": "t_address",
        "label": "mapping(address => uint256)",
        "numberOfBytes": "32",
        "value": "t_uint256"
      },
      "t_mapping(t_uint256,t_address)": {
        "encoding": "mapping",
        "key": "t_uint256",
        "label": "mapping(uint256 => address)",
        "numberOfBytes": "32",
        "value": "t_address"
      },
      "t_string_storage": {
        "encoding": "bytes",
        "label": "string",
        "numberOfBytes": "32"
      },
      "t_uint256": {
        "encoding": "inplace",
        "label": "uint256",
        "numberOfBytes": "32"
      }
    }
  }
}