{
  "address": "0x1Add4e558Ce81fbdFD097550894CBdF37D448a9E",
  "abi": [
    {
      "inputs": [],
      "name": "AccessDenied",
      "type": "error"
    },
    {
      "inputs": [
        {
          "internalType": "bytes",
          "name": "",
          "type": "bytes"
        }
      ],
      "name": "CallReverted",
      "type": "error"
    },
    {
      "inputs": [],
      "name": "RemintForbidden",
      "type": "error"
    },
    {
      "anonymous": false,
      "inputs": [
        {
          "indexed": true,
          "internalType": "address",
          "name": "owner",
          "type": "address"
        },
        {
          "indexed": true,
          "internalType": "address",
          "name": "approved",
          "type": "address"
        },
        {
          "indexed": true,
          "internalType": "uint256",
          "name": "tokenId",
          "type": "uint256"
        }
      ],
      "name": "Approval",
      "type": "event"
    },
    {
      "anonymous": false,
      "inputs": [
        {
          "indexed": true,
          "internalType": "address",
          "name": "owner",
          "type": "address"
        },
        {
          "indexed": true,
          "internalType": "address",
          "name": "operator",
          "type": "address"
        },
        {
          "indexed": false,
          "internalType": "bool",
          "name": "approved",
          "type": "bool"
        }
      ],
      "name": "ApprovalForAll",
      "type": "event"
    },
    {
      "anonymous": false,
      "inputs": [
        {
          "indexed": true,
          "internalType": "address",
          "name": "from",
          "type": "address"
        },
        {
          "indexed": true,
          "internalType": "address",
          "name": "to",
          "type": "address"
        },
        {
          "indexed": true,
          "internalType": "uint256",
          "name": "tokenId",
          "type": "uint256"
        }
      ],
      "name": "Transfer",
      "type": "event"
    },
    {
      "inputs": [
        {
          "internalType": "bytes16",
          "name": "magic",
          "type": "bytes16"
        }
      ],
      "name": "addressAndSaltForMagic",
      "outputs": [
        {
          "internalType": "address",
          "name": "account",
          "type": "address"
        },
        {
          "internalType": "bytes32",
          "name": "salt",
          "type": "bytes32"
        }
      ],
      "stateMutability": "view",
      "type": "function"
    },
    {
      "inputs": [
        {
          "internalType": "uint256",
          "name": "tokenId",
          "type": "uint256"
        }
      ],
      "name": "addressForTokenId",
      "outputs": [
        {
          "internalType": "address",
          "name": "",
          "type": "address"
        }
      ],
      "stateMutability": "pure",
      "type": "function"
    },
    {
      "inputs": [
        {
          "internalType": "address",
          "name": "to",
          "type": "address"
        },
        {
          "internalType": "uint256",
          "name": "tokenId",
          "type": "uint256"
        }
      ],
      "name": "approve",
      "outputs": [],
      "stateMutability": "nonpayable",
      "type": "function"
    },
    {
      "inputs": [
        {
          "internalType": "address",
          "name": "owner",
          "type": "address"
        }
      ],
      "name": "balanceOf",
      "outputs": [
        {
          "internalType": "uint256",
          "name": "",
          "type": "uint256"
        }
      ],
      "stateMutability": "view",
      "type": "function"
    },
    {
      "inputs": [
        {
          "internalType": "uint256",
          "name": "tokenId",
          "type": "uint256"
        },
        {
          "internalType": "bytes",
          "name": "creationCode",
          "type": "bytes"
        }
      ],
      "name": "deploy",
      "outputs": [
        {
          "internalType": "address",
          "name": "deployed",
          "type": "address"
        }
      ],
      "stateMutability": "payable",
      "type": "function"
    },
    {
      "inputs": [
        {
          "internalType": "uint256",
          "name": "tokenId",
          "type": "uint256"
        },
        {
          "internalType": "bytes",
          "name": "creationCode",
          "type": "bytes"
        },
        {
          "internalType": "bytes",
          "name": "cd",
          "type": "bytes"
        }
      ],
      "name": "deployAndCall",
      "outputs": [
        {
          "internalType": "address",
          "name": "deployed",
          "type": "address"
        }
      ],
      "stateMutability": "payable",
      "type": "function"
    },
    {
      "inputs": [
        {
          "internalType": "uint256",
          "name": "tokenId",
          "type": "uint256"
        }
      ],
      "name": "getApproved",
      "outputs": [
        {
          "internalType": "address",
          "name": "",
          "type": "address"
        }
      ],
      "stateMutability": "view",
      "type": "function"
    },
    {
      "inputs": [
        {
          "internalType": "address",
          "name": "owner",
          "type": "address"
        },
        {
          "internalType": "address",
          "name": "operator",
          "type": "address"
        }
      ],
      "name": "isApprovedForAll",
      "outputs": [
        {
          "internalType": "bool",
          "name": "",
          "type": "bool"
        }
      ],
      "stateMutability": "view",
      "type": "function"
    },
    {
      "inputs": [
        {
          "internalType": "bytes16",
          "name": "magic",
          "type": "bytes16"
        }
      ],
      "name": "mint",
      "outputs": [
        {
          "internalType": "uint256",
          "name": "tokenId",
          "type": "uint256"
        }
      ],
      "stateMutability": "nonpayable",
      "type": "function"
    },
    {
      "inputs": [],
      "name": "name",
      "outputs": [
        {
          "internalType": "string",
          "name": "",
          "type": "string"
        }
      ],
      "stateMutability": "view",
      "type": "function"
    },
    {
      "inputs": [
        {
          "internalType": "uint256",
          "name": "tokenId",
          "type": "uint256"
        }
      ],
      "name": "ownerOf",
      "outputs": [
        {
          "internalType": "address",
          "name": "",
          "type": "address"
        }
      ],
      "stateMutability": "view",
      "type": "function"
    },
    {
      "inputs": [
        {
          "internalType": "address",
          "name": "from",
          "type": "address"
        },
        {
          "internalType": "address",
          "name": "to",
          "type": "address"
        },
        {
          "internalType": "uint256",
          "name": "tokenId",
          "type": "uint256"
        }
      ],
      "name": "safeTransferFrom",
      "outputs": [],
      "stateMutability": "nonpayable",
      "type": "function"
    },
    {
      "inputs": [
        {
          "internalType": "address",
          "name": "from",
          "type": "address"
        },
        {
          "internalType": "address",
          "name": "to",
          "type": "address"
        },
        {
          "internalType": "uint256",
          "name": "tokenId",
          "type": "uint256"
        },
        {
          "internalType": "bytes",
          "name": "data",
          "type": "bytes"
        }
      ],
      "name": "safeTransferFrom",
      "outputs": [],
      "stateMutability": "nonpayable",
      "type": "function"
    },
    {
      "inputs": [
        {
          "internalType": "uint256",
          "name": "tokenId",
          "type": "uint256"
        }
      ],
      "name": "salts",
      "outputs": [
        {
          "internalType": "bytes32",
          "name": "salt",
          "type": "bytes32"
        }
      ],
      "stateMutability": "view",
      "type": "function"
    },
    {
      "inputs": [
        {
          "internalType": "address",
          "name": "operator",
          "type": "address"
        },
        {
          "internalType": "bool",
          "name": "approved",
          "type": "bool"
        }
      ],
      "name": "setApprovalForAll",
      "outputs": [],
      "stateMutability": "nonpayable",
      "type": "function"
    },
    {
      "inputs": [
        {
          "internalType": "bytes4",
          "name": "interfaceId",
          "type": "bytes4"
        }
      ],
      "name": "supportsInterface",
      "outputs": [
        {
          "internalType": "bool",
          "name": "",
          "type": "bool"
        }
      ],
      "stateMutability": "view",
      "type": "function"
    },
    {
      "inputs": [],
      "name": "symbol",
      "outputs": [
        {
          "internalType": "string",
          "name": "",
          "type": "string"
        }
      ],
      "stateMutability": "view",
      "type": "function"
    },
    {
      "inputs": [
        {
          "internalType": "uint256",
          "name": "tokenId",
          "type": "uint256"
        }
      ],
      "name": "tokenURI",
      "outputs": [
        {
          "internalType": "string",
          "name": "",
          "type": "string"
        }
      ],
      "stateMutability": "pure",
      "type": "function"
    },
    {
      "inputs": [
        {
          "internalType": "address",
          "name": "from",
          "type": "address"
        },
        {
          "internalType": "address",
          "name": "to",
          "type": "address"
        },
        {
          "internalType": "uint256",
          "name": "tokenId",
          "type": "uint256"
        }
      ],
      "name": "transferFrom",
      "outputs": [],
      "stateMutability": "nonpayable",
      "type": "function"
    }
  ],
  "transactionHash": "0xebf4299ad79cf83b3536d70cc46addb6786f6a94ea345300cbaae6245b2af83f",
  "args": [],
  "numDeployments": 1,
  "solcInputHash": "6091300af86439a34512bf2bdbb15381",
  "bytecode": "0x60803462000316576001600160401b0390604090808201838111828210176200030057825260118152602092700c5a5b98da081059191c995cdcc8139195607a1b848301528251838101818110838211176200030057845260058152640c5053919560da1b85820152825190828211620003005760008054926001958685811c95168015620002f5575b89861014620002e1578190601f958681116200028e575b5089908683116001146200022a5784926200021e575b5050600019600383901b1c191690861b1781555b81519384116200020a5784548581811c91168015620001ff575b88821014620001eb57838111620001a3575b50869284116001146200013d5783949596509262000131575b5050600019600383901b1c191690821b1790555b516127fc90816200031c8239f35b0151905038806200010f565b9190601f1984169685845280842093905b8882106200018b575050838596971062000171575b505050811b01905562000123565b015160001960f88460031b161c1916905538808062000163565b8087859682949686015181550195019301906200014e565b8582528782208480870160051c8201928a8810620001e1575b0160051c019086905b828110620001d5575050620000f6565b838155018690620001c5565b92508192620001bc565b634e487b7160e01b82526022600452602482fd5b90607f1690620000e4565b634e487b7160e01b81526041600452602490fd5b015190503880620000b6565b8480528a85208994509190601f198416865b8d8282106200027757505084116200025d575b505050811b018155620000ca565b015160001960f88460031b161c191690553880806200024f565b8385015186558c979095019493840193016200023c565b9091508380528984208680850160051c8201928c8610620002d7575b918a91869594930160051c01915b828110620002c8575050620000a0565b8681558594508a9101620002b8565b92508192620002aa565b634e487b7160e01b83526022600452602483fd5b94607f169462000089565b634e487b7160e01b600052604160045260246000fd5b600080fdfe6080604052600436101561001257600080fd5b60003560e01c806301ffc9a71461014757806306fdde0314610142578063081812fc1461013d578063095ea7b31461013857806323b872dd1461013357806342842e0e1461012e57806361ff715f146101295780636352211e1461012457806370a082311461011f5780637b2fe0281461011a57806395d89b4114610115578063a22cb46514610110578063ac1d45c51461010b578063acc8f30614610106578063b88d4fde14610101578063c87b56dd146100fc578063d2b96ef3146100f7578063e985e9c5146100f25763f9298d51146100ed57600080fd5b6111f9565b61115f565b61112a565b611045565b610fc7565b610c9a565b610bf7565b610a9a565b6109bb565b6108be565b6107c5565b610789565b610731565b6106db565b6106b2565b6104e4565b610444565b6102e5565b61017b565b7fffffffff0000000000000000000000000000000000000000000000000000000081160361017657565b600080fd5b346101765760207ffffffffffffffffffffffffffffffffffffffffffffffffffffffffffffffffc3601126101765760207fffffffff000000000000000000000000000000000000000000000000000000006004356101d98161014c565b167f80ac58cd000000000000000000000000000000000000000000000000000000008114908115610241575b8115610217575b506040519015158152f35b7f01ffc9a7000000000000000000000000000000000000000000000000000000009150143861020c565b7f5b5e139f0000000000000000000000000000000000000000000000000000000081149150610205565b60005b83811061027e5750506000910152565b818101518382015260200161026e565b907fffffffffffffffffffffffffffffffffffffffffffffffffffffffffffffffe0601f6020936102ca8151809281875287808801910161026b565b0116010190565b9060206102e292818152019061028e565b90565b34610176576000807ffffffffffffffffffffffffffffffffffffffffffffffffffffffffffffffffc36011261044157604051908080549060019180831c92808216928315610437575b602092838610851461040a5785885260208801949081156103cb5750600114610373575b61036f8761036381890382610f15565b604051918291826102d1565b0390f35b6000805294509192917f290decd9548b62a8d60345a988386fc84ba6bc95484008f6362f93160ef3e5635b8386106103ba57505050910190506103638261036f3880610353565b80548587015294820194810161039e565b7fffffffffffffffffffffffffffffffffffffffffffffffffffffffffffffff001685525050505090151560051b0190506103638261036f3880610353565b6024827f4e487b710000000000000000000000000000000000000000000000000000000081526022600452fd5b93607f169361032f565b80fd5b346101765760207ffffffffffffffffffffffffffffffffffffffffffffffffffffffffffffffffc360112610176576020610480600435611369565b73ffffffffffffffffffffffffffffffffffffffff60405191168152f35b6004359073ffffffffffffffffffffffffffffffffffffffff8216820361017657565b6024359073ffffffffffffffffffffffffffffffffffffffff8216820361017657565b346101765760407ffffffffffffffffffffffffffffffffffffffffffffffffffffffffffffffffc3601126101765761051b61049e565b602435610527816112af565b9173ffffffffffffffffffffffffffffffffffffffff80841680918316146105ce5761056693610561913314908115610568575b506112de565b611823565b005b6105c891506105c19061059c339173ffffffffffffffffffffffffffffffffffffffff166000526005602052604060002090565b9073ffffffffffffffffffffffffffffffffffffffff16600052602052604060002090565b5460ff1690565b3861055b565b60846040517f08c379a000000000000000000000000000000000000000000000000000000000815260206004820152602160248201527f4552433732313a20617070726f76616c20746f2063757272656e74206f776e6560448201527f72000000000000000000000000000000000000000000000000000000000000006064820152fd5b7ffffffffffffffffffffffffffffffffffffffffffffffffffffffffffffffffc60609101126101765773ffffffffffffffffffffffffffffffffffffffff90600435828116810361017657916024359081168103610176579060443590565b34610176576105666106c336610652565b916106d66106d18433611513565b6113c5565b611639565b34610176576105666106ec36610652565b90604051926106fa84610ebc565b60008452611463565b9181601f840112156101765782359167ffffffffffffffff8311610176576020838186019501011161017657565b60407ffffffffffffffffffffffffffffffffffffffffffffffffffffffffffffffffc3601126101765760243567ffffffffffffffff8111610176576104806107806020923690600401610703565b9060043561241a565b346101765760207ffffffffffffffffffffffffffffffffffffffffffffffffffffffffffffffffc3601126101765760206104806004356112af565b346101765760207ffffffffffffffffffffffffffffffffffffffffffffffffffffffffffffffffc3601126101765773ffffffffffffffffffffffffffffffffffffffff61081161049e565b16801561083a57600052600360205261036f604060002054604051918291829190602083019252565b60846040517f08c379a000000000000000000000000000000000000000000000000000000000815260206004820152602960248201527f4552433732313a2061646472657373207a65726f206973206e6f74206120766160448201527f6c6964206f776e657200000000000000000000000000000000000000000000006064820152fd5b60607ffffffffffffffffffffffffffffffffffffffffffffffffffffffffffffffffc3601126101765767ffffffffffffffff60243581811161017657610909903690600401610703565b90916044359081116101765760009161093561092a84933690600401610703565b92909560043561241a565b938160405192839283378101838152039082855af1610952611910565b90156109795760405173ffffffffffffffffffffffffffffffffffffffff83168152602090f35b6109b7906040519182917f70de1b4b00000000000000000000000000000000000000000000000000000000835260206004840152602483019061028e565b0390fd5b34610176576000807ffffffffffffffffffffffffffffffffffffffffffffffffffffffffffffffffc360112610441576040519080600190815480831c92808216928315610a90575b602092838610851461040a5785885260208801949081156103cb5750600114610a375761036f8761036381890382610f15565b600160005294509192917fb10e2d527612073b26eecdfd717e6a320cf44b4afac2b0732d9fcbe2b7fa0cf65b838610610a7f57505050910190506103638261036f3880610353565b805485870152948201948101610a63565b93607f1693610a04565b346101765760407ffffffffffffffffffffffffffffffffffffffffffffffffffffffffffffffffc36011261017657610ad161049e565b60243580151581036101765773ffffffffffffffffffffffffffffffffffffffff821691823314610b995781610b37610b679233600052600560205260406000209073ffffffffffffffffffffffffffffffffffffffff16600052602052604060002090565b9060ff7fffffffffffffffffffffffffffffffffffffffffffffffffffffffffffffff0083541691151516179055565b604051901515815233907f17307eab39ab6107e8899845ad3d59bd9653f200f220920489ca2b5937696c3190602090a3005b60646040517f08c379a000000000000000000000000000000000000000000000000000000000815260206004820152601960248201527f4552433732313a20617070726f766520746f2063616c6c6572000000000000006044820152fd5b346101765760207ffffffffffffffffffffffffffffffffffffffffffffffffffffffffffffffffc3601126101765760043560005260066020526020604060002054604051908152f35b7ffffffffffffffffffffffffffffffffffffffffffffffffffffffffffffffffc6020910112610176576004357fffffffffffffffffffffffffffffffff00000000000000000000000000000000811681036101765790565b346101765773ffffffffffffffffffffffffffffffffffffffff610cc5610cc036610c41565b612373565b91169060009082825260066020526040822054610e6357828252600660205260408220553315610e0557610d2b610d26610d2284600052600260205273ffffffffffffffffffffffffffffffffffffffff60406000205416151590565b1590565b6123b5565b610d5e610d26610d2284600052600260205273ffffffffffffffffffffffffffffffffffffffff60406000205416151590565b33600090815260036020526040902060018154019055610dcc33610d8c846000526002602052604060002090565b9073ffffffffffffffffffffffffffffffffffffffff167fffffffffffffffffffffffff0000000000000000000000000000000000000000825416179055565b61036f8260405193849333907fddf252ad1be2c89b69c2b068fc378daa952ba7f163c4a11628f55a4df523b3ef8180a482526020820190565b60646040517f08c379a000000000000000000000000000000000000000000000000000000000815260206004820152602060248201527f4552433732313a206d696e7420746f20746865207a65726f20616464726573736044820152fd5b60046040517f8cde2bfc000000000000000000000000000000000000000000000000000000008152fd5b7f4e487b7100000000000000000000000000000000000000000000000000000000600052604160045260246000fd5b6020810190811067ffffffffffffffff821117610ed857604052565b610e8d565b6080810190811067ffffffffffffffff821117610ed857604052565b6040810190811067ffffffffffffffff821117610ed857604052565b90601f7fffffffffffffffffffffffffffffffffffffffffffffffffffffffffffffffe0910116810190811067ffffffffffffffff821117610ed857604052565b67ffffffffffffffff8111610ed857601f017fffffffffffffffffffffffffffffffffffffffffffffffffffffffffffffffe01660200190565b929192610f9c82610f56565b91610faa6040519384610f15565b829481845281830111610176578281602093846000960137010152565b346101765760807ffffffffffffffffffffffffffffffffffffffffffffffffffffffffffffffffc36011261017657610ffe61049e565b6110066104c1565b6064359167ffffffffffffffff831161017657366023840112156101765761103b610566933690602481600401359101610f90565b9160443591611463565b346101765760207ffffffffffffffffffffffffffffffffffffffffffffffffffffffffffffffffc3601126101765760048035611080611ee6565b91603061108c846120c6565b536078611098846120d3565b536029905b600182116110d65761036f6103636110d16110cc876110bc881561211f565b6110c58161220f565b8080611ac4565b611f62565b611db0565b9091600f8116906010821015611125577f303132333435363738396162636465660000000000000000000000000000000061111f921a61111685876120e3565b53821c926120f4565b9061109d565b612097565b3461017657604061113d610cc036610c41565b73ffffffffffffffffffffffffffffffffffffffff8351921682526020820152f35b346101765760407ffffffffffffffffffffffffffffffffffffffffffffffffffffffffffffffffc36011261017657602060ff6111ed61119d61049e565b73ffffffffffffffffffffffffffffffffffffffff6111ba6104c1565b91166000526005845260406000209073ffffffffffffffffffffffffffffffffffffffff16600052602052604060002090565b54166040519015158152f35b346101765760207ffffffffffffffffffffffffffffffffffffffffffffffffffffffffffffffffc36011261017657602060405173ffffffffffffffffffffffffffffffffffffffff600435168152f35b1561125157565b60646040517f08c379a000000000000000000000000000000000000000000000000000000000815260206004820152601860248201527f4552433732313a20696e76616c696420746f6b656e20494400000000000000006044820152fd5b600052600260205273ffffffffffffffffffffffffffffffffffffffff604060002054166102e281151561124a565b156112e557565b60846040517f08c379a000000000000000000000000000000000000000000000000000000000815260206004820152603d60248201527f4552433732313a20617070726f76652063616c6c6572206973206e6f7420746f60448201527f6b656e206f776e6572206f7220617070726f76656420666f7220616c6c0000006064820152fd5b61139e61139982600052600260205273ffffffffffffffffffffffffffffffffffffffff60406000205416151590565b61124a565b600052600460205273ffffffffffffffffffffffffffffffffffffffff6040600020541690565b156113cc57565b60846040517f08c379a000000000000000000000000000000000000000000000000000000000815260206004820152602d60248201527f4552433732313a2063616c6c6572206973206e6f7420746f6b656e206f776e6560448201527f72206f7220617070726f766564000000000000000000000000000000000000006064820152fd5b6040519061145d82610ebc565b60008252565b906114879392916114776106d18433611513565b611482838383611639565b611940565b1561148e57565b6040517f08c379a000000000000000000000000000000000000000000000000000000000815260206004820152603260248201527f4552433732313a207472616e7366657220746f206e6f6e20455243373231526560448201527f63656976657220696d706c656d656e74657200000000000000000000000000006064820152608490fd5b73ffffffffffffffffffffffffffffffffffffffff80611532846112af565b169281831692848414948515611568575b50508315611552575b50505090565b61155e91929350611369565b161438808061154c565b60ff929550906115a491600052600560205260406000209073ffffffffffffffffffffffffffffffffffffffff16600052602052604060002090565b5416923880611543565b156115b557565b60846040517f08c379a000000000000000000000000000000000000000000000000000000000815260206004820152602560248201527f4552433732313a207472616e736665722066726f6d20696e636f72726563742060448201527f6f776e65720000000000000000000000000000000000000000000000000000006064820152fd5b61166a90611646846112af565b73ffffffffffffffffffffffffffffffffffffffff828116939091821684146115ae565b83169283156117a05761170e611779926116a9856116a361168a8a6112af565b73ffffffffffffffffffffffffffffffffffffffff1690565b146115ae565b6116e86116c0886000526004602052604060002090565b7fffffffffffffffffffffffff00000000000000000000000000000000000000008154169055565b73ffffffffffffffffffffffffffffffffffffffff166000526003602052604060002090565b7fffffffffffffffffffffffffffffffffffffffffffffffffffffffffffffffff815401905561175e8173ffffffffffffffffffffffffffffffffffffffff166000526003602052604060002090565b60018154019055610d8c856000526002602052604060002090565b7fddf252ad1be2c89b69c2b068fc378daa952ba7f163c4a11628f55a4df523b3ef600080a4565b60846040517f08c379a0000000000000000000000000000000000000000000000000000000008152602060048201526024808201527f4552433732313a207472616e7366657220746f20746865207a65726f2061646460448201527f72657373000000000000000000000000000000000000000000000000000000006064820152fd5b8160005260046020526118758160406000209073ffffffffffffffffffffffffffffffffffffffff167fffffffffffffffffffffffff0000000000000000000000000000000000000000825416179055565b73ffffffffffffffffffffffffffffffffffffffff80611894846112af565b169116907f8c5be1e5ebec7d5bd14f71427d1e84f3dd0314c0f7b2291e5b200ac8c7c3b925600080a4565b9081602091031261017657516102e28161014c565b90926102e2949360809373ffffffffffffffffffffffffffffffffffffffff80921684521660208301526040820152816060820152019061028e565b3d1561193b573d9061192182610f56565b9161192f6040519384610f15565b82523d6000602084013e565b606090565b92909190823b15611aa4576119a192602092600073ffffffffffffffffffffffffffffffffffffffff6040518097819682957f150b7a02000000000000000000000000000000000000000000000000000000009b8c855233600486016118d4565b0393165af160009181611a74575b50611a4e576119bc611910565b80519081611a49576040517f08c379a000000000000000000000000000000000000000000000000000000000815260206004820152603260248201527f4552433732313a207472616e7366657220746f206e6f6e20455243373231526560448201527f63656976657220696d706c656d656e74657200000000000000000000000000006064820152608490fd5b602001fd5b7fffffffff00000000000000000000000000000000000000000000000000000000161490565b611a9691925060203d8111611a9d575b611a8e8183610f15565b8101906118bf565b90386119af565b503d611a84565b50505050600190565b90611ac06020928281519485920161026b565b0190565b611d82611d0d6003611c73611b419796611c6d6082611dae9860366040519c8d809b7f7b0a00000000000000000000000000000000000000000000000000000000000060208301527f09226e616d65223a20224465706c6f7920746f2000000000000000000000000060228301526020815194859301910161026b565b89017f222c0a000000000000000000000000000000000000000000000000000000000060368201527f09226465736372697074696f6e223a2022456e61626c657320686f6c6465722060398201527f746f206465706c6f792061726269747261727920736d61727420636f6e74726160598201527f637420746f2000000000000000000000000000000000000000000000000000006079820152611bef825180936020607f8501910161026b565b01611c1c607f82017f222c0a00000000000000000000000000000000000000000000000000000000009052565b01602f907f092265787465726e616c5f75726c223a202268747470733a2f2f65746865727381527f63616e2e696f2f616464726573732f000000000000000000000000000000000060208201520190565b90611aad565b7f222c0a00000000000000000000000000000000000000000000000000000000008152016043907f0922696d616765223a2022697066733a2f2f516d5a5733545464744b38376b7481527f786d683650473555756d62746f5758553872564241706f36356f6b6e656b6d6360208201527f222c0a000000000000000000000000000000000000000000000000000000000060408201520190565b7f0922616e696d6174696f6e5f75726c223a2022697066733a2f2f516d5a4b703381527f4b376f794446506b5655585567444b715a3652634c5a593751573236374a765860208201527f52544c5731716147220a7d0000000000000000000000000000000000000000006040820152604b0190565b037fffffffffffffffffffffffffffffffffffffffffffffffffffffffffffffffe08101845283610f15565b565b90611dae603d60405180947f646174613a6170706c69636174696f6e2f6a736f6e3b6261736536342c0000006020830152611df4815180926020868601910161026b565b810103601d810185520183610f15565b604051906060820182811067ffffffffffffffff821117610ed857604052604082527f6768696a6b6c6d6e6f707172737475767778797a303132333435363738392b2f6040837f4142434445464748494a4b4c4d4e4f505152535455565758595a61626364656660208201520152565b7f4e487b7100000000000000000000000000000000000000000000000000000000600052601160045260246000fd5b9060028201809211611eb157565b611e74565b908160021b917f3fffffffffffffffffffffffffffffffffffffffffffffffffffffffffffffff811603611eb157565b604051906060820182811067ffffffffffffffff821117610ed857604052602a8252604082602036910137565b90611f1d82610f56565b611f2a6040519182610f15565b8281527fffffffffffffffffffffffffffffffffffffffffffffffffffffffffffffffe0611f588294610f56565b0190602036910137565b80511561208e57611f71611e04565b611f95611f90611f8b611f848551611ea3565b6003900490565b611eb6565b611f13565b9160208301918182518301915b82821061203c57505050600390510680600114611fed57600214611fc4575090565b7fffffffffffffffffffffffffffffffffffffffffffffffffffffffffffffffff603d91015390565b507ffffffffffffffffffffffffffffffffffffffffffffffffffffffffffffffffe81603d7fffffffffffffffffffffffffffffffffffffffffffffffffffffffffffffffff81940153015390565b9091936004906003809401938451600190603f9082828260121c16880101518553828282600c1c16880101518386015382828260061c1688010151600286015316850101519082015301939190611fa2565b506102e2611450565b7f4e487b7100000000000000000000000000000000000000000000000000000000600052603260045260246000fd5b8051156111255760200190565b8051600110156111255760210190565b908151811015611125570160200190565b8015611eb1577fffffffffffffffffffffffffffffffffffffffffffffffffffffffffffffffff0190565b1561212657565b60646040517f08c379a000000000000000000000000000000000000000000000000000000000815260206004820152602060248201527f537472696e67733a20686578206c656e67746820696e73756666696369656e746044820152fd5b7fffffffffffffffffffffffffffffffffffffffffffffffffffffffffffffffff8114611eb15760010190565b907ffffffffffffffffffffffffffffffffffffffffffffffffffffffffffffffffe8201918211611eb157565b60ff7fffffffffffffffffffffffffffffffffffffffffffffffffffffffffffffffe09116019060ff8211611eb157565b7ffffffffffffffffffffffffffffffffffffffffffffffffffffffffffffffffe81510160228201209060025b602a811061224957505050565b61225b612255826121b1565b60011c90565b9060208210156111255760078461228d931a600183161560001461236b5760041c5b1180612314575b61229257612184565b61223c565b6123016122d96122d46122ce6122a885886120e3565b517fff000000000000000000000000000000000000000000000000000000000000001690565b60f81c90565b6121de565b60f81b7fff000000000000000000000000000000000000000000000000000000000000001690565b60001a61230e82856120e3565b53612184565b507f39000000000000000000000000000000000000000000000000000000000000007fff000000000000000000000000000000000000000000000000000000000000006123646122a884876120e3565b1611612284565b600f1661227d565b7fffffffffffffffffffffffffffffffff00000000000000000000000000000000166fffffffffffffffffffffffffffffffff3316176123b2816126c0565b91565b156123bc57565b60646040517f08c379a000000000000000000000000000000000000000000000000000000000815260206004820152601c60248201527f4552433732313a20746f6b656e20616c7265616479206d696e746564000000006044820152fd5b919073ffffffffffffffffffffffffffffffffffffffff928361243c826112af565b1633036125275761251681806102e296612458612521956112af565b50612462826112af565b906000918383526004602052604083207fffffffffffffffffffffffff00000000000000000000000000000000000000008154169055168082526003602052604082207fffffffffffffffffffffffffffffffffffffffffffffffffffffffffffffffff81540190556124e26116c0846000526002602052604060002090565b7fddf252ad1be2c89b69c2b068fc378daa952ba7f163c4a11628f55a4df523b3ef8280a46000526006602052604060002090565b549134933691610f90565b9061259b565b60046040517f4ca88867000000000000000000000000000000000000000000000000000000008152fd5b604051906040820182811067ffffffffffffffff821117610ed857604052601082527f67363d3d37363d34f03d5260086018f3000000000000000000000000000000006020830152565b929192806125a7612551565b6020815191016000f59173ffffffffffffffffffffffffffffffffffffffff831615612662576000926125da84936126c0565b95602083519301915af16125ec611910565b5080612658575b156125fa57565b60646040517f08c379a000000000000000000000000000000000000000000000000000000000815260206004820152601560248201527f494e495449414c495a4154494f4e5f4641494c454400000000000000000000006044820152fd5b50813b15156125f3565b60646040517f08c379a000000000000000000000000000000000000000000000000000000000815260206004820152601160248201527f4445504c4f594d454e545f4641494c45440000000000000000000000000000006044820152fd5b6102e2906126cc612551565b602081519101206040519060208201927fff0000000000000000000000000000000000000000000000000000000000000084523060601b6021840152603583015260558201526055815261271f81610edd565b5190206040517fffffffffffffffffffffffffffffffffffffffff00000000000000000000000060208201927fd694000000000000000000000000000000000000000000000000000000000000845260601b1660228201527f01000000000000000000000000000000000000000000000000000000000000006036820152601781526127aa81610ef9565b51902073ffffffffffffffffffffffffffffffffffffffff169056fea2646970667358221220a94ca0ea95ad089bafdde2e2a01693b2897d5099824c039c9c1ef37aad9954f864736f6c63430008130033",
  "devdoc": {
    "events": {
      "Approval(address,address,uint256)": {
        "details": "Emitted when `owner` enables `approved` to manage the `tokenId` token."
      },
      "ApprovalForAll(address,address,bool)": {
        "details": "Emitted when `owner` enables or disables (`approved`) `operator` to manage all of its assets."
      },
      "Transfer(address,address,uint256)": {
        "details": "Emitted when `tokenId` token is transferred from `from` to `to`."
      }
    },
    "kind": "dev",
    "methods": {
      "approve(address,uint256)": {
        "details": "See {IERC721-approve}."
      },
      "balanceOf(address)": {
        "details": "See {IERC721-balanceOf}."
      },
      "getApproved(uint256)": {
        "details": "See {IERC721-getApproved}."
      },
      "isApprovedForAll(address,address)": {
        "details": "See {IERC721-isApprovedForAll}."
      },
      "name()": {
        "details": "See {IERC721Metadata-name}."
      },
      "ownerOf(uint256)": {
        "details": "See {IERC721-ownerOf}."
      },
      "safeTransferFrom(address,address,uint256)": {
        "details": "See {IERC721-safeTransferFrom}."
      },
      "safeTransferFrom(address,address,uint256,bytes)": {
        "details": "See {IERC721-safeTransferFrom}."
      },
      "setApprovalForAll(address,bool)": {
        "details": "See {IERC721-setApprovalForAll}."
      },
      "supportsInterface(bytes4)": {
        "details": "See {IERC165-supportsInterface}."
      },
      "symbol()": {
        "details": "See {IERC721Metadata-symbol}."
      },
      "tokenURI(uint256)": {
        "details": "See {IERC721Metadata-tokenURI}."
      },
      "transferFrom(address,address,uint256)": {
        "details": "See {IERC721-transferFrom}."
      }
    },
    "version": 1
  },
  "userdoc": {
    "kind": "user",
    "methods": {},
    "version": 1
  },
  "storageLayout": {
    "storage": [
      {
        "astId": 25,
        "contract": "contracts/AddressToken.sol:AddressToken",
        "label": "_name",
        "offset": 0,
        "slot": "0",
        "type": "t_string_storage"
      },
      {
        "astId": 27,
        "contract": "contracts/AddressToken.sol:AddressToken",
        "label": "_symbol",
        "offset": 0,
        "slot": "1",
        "type": "t_string_storage"
      },
      {
        "astId": 31,
        "contract": "contracts/AddressToken.sol:AddressToken",
        "label": "_owners",
        "offset": 0,
        "slot": "2",
        "type": "t_mapping(t_uint256,t_address)"
      },
      {
        "astId": 35,
        "contract": "contracts/AddressToken.sol:AddressToken",
        "label": "_balances",
        "offset": 0,
        "slot": "3",
        "type": "t_mapping(t_address,t_uint256)"
      },
      {
        "astId": 39,
        "contract": "contracts/AddressToken.sol:AddressToken",
        "label": "_tokenApprovals",
        "offset": 0,
        "slot": "4",
        "type": "t_mapping(t_uint256,t_address)"
      },
      {
        "astId": 45,
        "contract": "contracts/AddressToken.sol:AddressToken",
        "label": "_operatorApprovals",
        "offset": 0,
        "slot": "5",
        "type": "t_mapping(t_address,t_mapping(t_address,t_bool))"
      },
      {
        "astId": 2583,
        "contract": "contracts/AddressToken.sol:AddressToken",
        "label": "salts",
        "offset": 0,
        "slot": "6",
        "type": "t_mapping(t_uint256,t_bytes32)"
      }
    ],
    "types": {
      "t_address": {
        "encoding": "inplace",
        "label": "address",
        "numberOfBytes": "20"
      },
      "t_bool": {
        "encoding": "inplace",
        "label": "bool",
        "numberOfBytes": "1"
      },
      "t_bytes32": {
        "encoding": "inplace",
        "label": "bytes32",
        "numberOfBytes": "32"
      },
      "t_mapping(t_address,t_bool)": {
        "encoding": "mapping",
        "key": "t_address",
        "label": "mapping(address => bool)",
        "numberOfBytes": "32",
        "value": "t_bool"
      },
      "t_mapping(t_address,t_mapping(t_address,t_bool))": {
        "encoding": "mapping",
        "key": "t_address",
        "label": "mapping(address => mapping(address => bool))",
        "numberOfBytes": "32",
        "value": "t_mapping(t_address,t_bool)"
      },
      "t_mapping(t_address,t_uint256)": {
        "encoding": "mapping",
        "key": "t_address",
        "label": "mapping(address => uint256)",
        "numberOfBytes": "32",
        "value": "t_uint256"
      },
      "t_mapping(t_uint256,t_address)": {
        "encoding": "mapping",
        "key": "t_uint256",
        "label": "mapping(uint256 => address)",
        "numberOfBytes": "32",
        "value": "t_address"
      },
      "t_mapping(t_uint256,t_bytes32)": {
        "encoding": "mapping",
        "key": "t_uint256",
        "label": "mapping(uint256 => bytes32)",
        "numberOfBytes": "32",
        "value": "t_bytes32"
      },
      "t_string_storage": {
        "encoding": "bytes",
        "label": "string",
        "numberOfBytes": "32"
      },
      "t_uint256": {
        "encoding": "inplace",
        "label": "uint256",
        "numberOfBytes": "32"
      }
    }
  }
}